{
  "contractName": "erctoken",
  "abi": [
    {
      "inputs": [],
      "stateMutability": "nonpayable",
      "type": "constructor"
    },
    {
      "anonymous": false,
      "inputs": [
        {
          "indexed": true,
          "internalType": "address",
          "name": "owner",
          "type": "address"
        },
        {
          "indexed": true,
          "internalType": "address",
          "name": "spender",
          "type": "address"
        },
        {
          "indexed": false,
          "internalType": "uint256",
          "name": "value",
          "type": "uint256"
        }
      ],
      "name": "Approval",
      "type": "event"
    },
    {
      "anonymous": false,
      "inputs": [
        {
          "indexed": true,
          "internalType": "address",
          "name": "previousOwner",
          "type": "address"
        },
        {
          "indexed": true,
          "internalType": "address",
          "name": "newOwner",
          "type": "address"
        }
      ],
      "name": "OwnershipTransferred",
      "type": "event"
    },
    {
      "anonymous": false,
      "inputs": [
        {
          "indexed": true,
          "internalType": "address",
          "name": "from",
          "type": "address"
        },
        {
          "indexed": true,
          "internalType": "address",
          "name": "to",
          "type": "address"
        },
        {
          "indexed": false,
          "internalType": "uint256",
          "name": "value",
          "type": "uint256"
        }
      ],
      "name": "Transfer",
      "type": "event"
    },
    {
      "stateMutability": "payable",
      "type": "fallback"
    },
    {
      "inputs": [],
      "name": "DELAY",
      "outputs": [
        {
          "internalType": "uint256",
          "name": "",
          "type": "uint256"
        }
      ],
      "stateMutability": "view",
      "type": "function"
    },
    {
      "inputs": [
        {
          "internalType": "address",
          "name": "owner",
          "type": "address"
        },
        {
          "internalType": "address",
          "name": "spender",
          "type": "address"
        }
      ],
      "name": "allowance",
      "outputs": [
        {
          "internalType": "uint256",
          "name": "",
          "type": "uint256"
        }
      ],
      "stateMutability": "view",
      "type": "function"
    },
    {
      "inputs": [
        {
          "internalType": "address",
          "name": "spender",
          "type": "address"
        },
        {
          "internalType": "uint256",
          "name": "amount",
          "type": "uint256"
        }
      ],
      "name": "approve",
      "outputs": [
        {
          "internalType": "bool",
          "name": "",
          "type": "bool"
        }
      ],
      "stateMutability": "nonpayable",
      "type": "function"
    },
    {
      "inputs": [
        {
          "internalType": "address",
          "name": "account",
          "type": "address"
        }
      ],
      "name": "balanceOf",
      "outputs": [
        {
          "internalType": "uint256",
          "name": "",
          "type": "uint256"
        }
      ],
      "stateMutability": "view",
      "type": "function"
    },
    {
      "inputs": [],
      "name": "decimals",
      "outputs": [
        {
          "internalType": "uint8",
          "name": "",
          "type": "uint8"
        }
      ],
      "stateMutability": "view",
      "type": "function"
    },
    {
      "inputs": [
        {
          "internalType": "address",
          "name": "spender",
          "type": "address"
        },
        {
          "internalType": "uint256",
          "name": "subtractedValue",
          "type": "uint256"
        }
      ],
      "name": "decreaseAllowance",
      "outputs": [
        {
          "internalType": "bool",
          "name": "",
          "type": "bool"
        }
      ],
      "stateMutability": "nonpayable",
      "type": "function"
    },
    {
      "inputs": [
        {
          "internalType": "address",
          "name": "spender",
          "type": "address"
        },
        {
          "internalType": "uint256",
          "name": "addedValue",
          "type": "uint256"
        }
      ],
      "name": "increaseAllowance",
      "outputs": [
        {
          "internalType": "bool",
          "name": "",
          "type": "bool"
        }
      ],
      "stateMutability": "nonpayable",
      "type": "function"
    },
    {
      "inputs": [],
      "name": "name",
      "outputs": [
        {
          "internalType": "string",
          "name": "",
          "type": "string"
        }
      ],
      "stateMutability": "view",
      "type": "function"
    },
    {
      "inputs": [],
      "name": "owner",
      "outputs": [
        {
          "internalType": "address",
          "name": "",
          "type": "address"
        }
      ],
      "stateMutability": "view",
      "type": "function"
    },
    {
      "inputs": [],
      "name": "ownerof",
      "outputs": [
        {
          "internalType": "address",
          "name": "",
          "type": "address"
        }
      ],
      "stateMutability": "view",
      "type": "function"
    },
    {
      "inputs": [],
      "name": "renounceOwnership",
      "outputs": [],
      "stateMutability": "nonpayable",
      "type": "function"
    },
    {
      "inputs": [],
      "name": "symbol",
      "outputs": [
        {
          "internalType": "string",
          "name": "",
          "type": "string"
        }
      ],
      "stateMutability": "view",
      "type": "function"
    },
    {
      "inputs": [],
      "name": "totalSupply",
      "outputs": [
        {
          "internalType": "uint256",
          "name": "",
          "type": "uint256"
        }
      ],
      "stateMutability": "view",
      "type": "function"
    },
    {
      "inputs": [
        {
          "internalType": "address",
          "name": "recipient",
          "type": "address"
        },
        {
          "internalType": "uint256",
          "name": "amount",
          "type": "uint256"
        }
      ],
      "name": "transfer",
      "outputs": [
        {
          "internalType": "bool",
          "name": "",
          "type": "bool"
        }
      ],
      "stateMutability": "nonpayable",
      "type": "function"
    },
    {
      "inputs": [
        {
          "internalType": "address",
          "name": "sender",
          "type": "address"
        },
        {
          "internalType": "address",
          "name": "recipient",
          "type": "address"
        },
        {
          "internalType": "uint256",
          "name": "amount",
          "type": "uint256"
        }
      ],
      "name": "transferFrom",
      "outputs": [
        {
          "internalType": "bool",
          "name": "",
          "type": "bool"
        }
      ],
      "stateMutability": "nonpayable",
      "type": "function"
    },
    {
      "inputs": [
        {
          "internalType": "address",
          "name": "newOwner",
          "type": "address"
        }
      ],
      "name": "transferOwnership",
      "outputs": [],
      "stateMutability": "nonpayable",
      "type": "function"
    },
    {
      "inputs": [],
      "name": "buyToken",
      "outputs": [],
      "stateMutability": "payable",
      "type": "function"
    },
    {
      "inputs": [
        {
          "internalType": "uint256",
          "name": "amount",
          "type": "uint256"
        }
      ],
      "name": "changerate",
      "outputs": [],
      "stateMutability": "nonpayable",
      "type": "function"
    },
    {
      "inputs": [],
      "name": "cap",
      "outputs": [
        {
          "internalType": "uint256",
          "name": "",
          "type": "uint256"
        }
      ],
      "stateMutability": "view",
      "type": "function"
    },
    {
      "inputs": [
        {
          "internalType": "address",
          "name": "recipient",
          "type": "address"
        },
        {
          "internalType": "uint256",
          "name": "amount",
          "type": "uint256"
        }
      ],
      "name": "transfer_with_Delay",
      "outputs": [],
      "stateMutability": "nonpayable",
      "type": "function"
    }
  ],
  "bytecode": "0x60806040527116f578c4e0a060b5be2947b3c800000000006009553480156200002757600080fd5b506040518060400160405280600781526020017f6d79746f6b656e000000000000000000000000000000000000000000000000008152506040518060400160405280600381526020017f4d59540000000000000000000000000000000000000000000000000000000000815250620000b4620000a86200015360201b60201c565b6200015b60201b60201c565b8160049080519060200190620000cc929190620003a3565b508060059080519060200190620000e5929190620003a3565b505050620001043369d3c21bcecceda10000006200021f60201b60201c565b606460078190555033600660006101000a81548173ffffffffffffffffffffffffffffffffffffffff021916908373ffffffffffffffffffffffffffffffffffffffff160217905550620005ff565b600033905090565b60008060009054906101000a900473ffffffffffffffffffffffffffffffffffffffff169050816000806101000a81548173ffffffffffffffffffffffffffffffffffffffff021916908373ffffffffffffffffffffffffffffffffffffffff1602179055508173ffffffffffffffffffffffffffffffffffffffff168173ffffffffffffffffffffffffffffffffffffffff167f8be0079c531659141344cd1fd0a4f28419497f9722a3daafe3b4186f6b6457e060405160405180910390a35050565b600073ffffffffffffffffffffffffffffffffffffffff168273ffffffffffffffffffffffffffffffffffffffff16141562000292576040517f08c379a000000000000000000000000000000000000000000000000000000000815260040162000289906200048b565b60405180910390fd5b620002a6600083836200039960201b60201c565b8060036000828254620002ba9190620004db565b9250508190555080600160008473ffffffffffffffffffffffffffffffffffffffff1673ffffffffffffffffffffffffffffffffffffffff1681526020019081526020016000206000828254620003129190620004db565b925050819055508173ffffffffffffffffffffffffffffffffffffffff16600073ffffffffffffffffffffffffffffffffffffffff167fddf252ad1be2c89b69c2b068fc378daa952ba7f163c4a11628f55a4df523b3ef83604051620003799190620004ad565b60405180910390a362000395600083836200039e60201b60201c565b5050565b505050565b505050565b828054620003b19062000542565b90600052602060002090601f016020900481019282620003d5576000855562000421565b82601f10620003f057805160ff191683800117855562000421565b8280016001018555821562000421579182015b828111156200042057825182559160200191906001019062000403565b5b50905062000430919062000434565b5090565b5b808211156200044f57600081600090555060010162000435565b5090565b600062000462601f83620004ca565b91506200046f82620005d6565b602082019050919050565b620004858162000538565b82525050565b60006020820190508181036000830152620004a68162000453565b9050919050565b6000602082019050620004c460008301846200047a565b92915050565b600082825260208201905092915050565b6000620004e88262000538565b9150620004f58362000538565b9250827fffffffffffffffffffffffffffffffffffffffffffffffffffffffffffffffff038211156200052d576200052c62000578565b5b828201905092915050565b6000819050919050565b600060028204905060018216806200055b57607f821691505b60208210811415620005725762000571620005a7565b5b50919050565b7f4e487b7100000000000000000000000000000000000000000000000000000000600052601160045260246000fd5b7f4e487b7100000000000000000000000000000000000000000000000000000000600052602260045260246000fd5b7f45524332303a206d696e7420746f20746865207a65726f206164647265737300600082015250565b611f1e806200060f6000396000f3fe6080604052600436106101235760003560e01c806369b41170116100a0578063a457c2d711610064578063a457c2d71461040f578063a48217191461044c578063a9059cbb14610456578063dd62ed3e14610493578063f2fde38b146104d057610124565b806369b411701461033a57806370a0823114610365578063715018a6146103a25780638da5cb5b146103b957806395d89b41146103e457610124565b806323b872dd116100e757806323b872dd1461023f578063313ce5671461027c578063355274ea146102a757806339509351146102d25780634b079fa61461030f57610124565b806306fdde031461015a578063095ea7b31461018557806314376142146101c257806318160ddd146101eb57806319c50cf51461021657610124565b5b60003411156101585761015733670de0b6b3a76400006007543461014891906119ed565b61015291906119ed565b6104f9565b5b005b34801561016657600080fd5b5061016f61065a565b60405161017c9190611783565b60405180910390f35b34801561019157600080fd5b506101ac60048036038101906101a791906114a4565b6106ec565b6040516101b99190611768565b60405180910390f35b3480156101ce57600080fd5b506101e960048036038101906101e491906114e4565b61070a565b005b3480156101f757600080fd5b506102006107a4565b60405161020d9190611945565b60405180910390f35b34801561022257600080fd5b5061023d600480360381019061023891906114a4565b6107ae565b005b34801561024b57600080fd5b5061026660048036038101906102619190611451565b610815565b6040516102739190611768565b60405180910390f35b34801561028857600080fd5b5061029161090d565b60405161029e9190611960565b60405180910390f35b3480156102b357600080fd5b506102bc610916565b6040516102c99190611945565b60405180910390f35b3480156102de57600080fd5b506102f960048036038101906102f491906114a4565b610920565b6040516103069190611768565b60405180910390f35b34801561031b57600080fd5b506103246109cc565b604051610331919061174d565b60405180910390f35b34801561034657600080fd5b5061034f6109f2565b60405161035c9190611945565b60405180910390f35b34801561037157600080fd5b5061038c600480360381019061038791906113e4565b6109f7565b6040516103999190611945565b60405180910390f35b3480156103ae57600080fd5b506103b7610a40565b005b3480156103c557600080fd5b506103ce610ac8565b6040516103db919061174d565b60405180910390f35b3480156103f057600080fd5b506103f9610af1565b6040516104069190611783565b60405180910390f35b34801561041b57600080fd5b50610436600480360381019061043191906114a4565b610b83565b6040516104439190611768565b60405180910390f35b610454610c6e565b005b34801561046257600080fd5b5061047d600480360381019061047891906114a4565b610cf8565b60405161048a9190611768565b60405180910390f35b34801561049f57600080fd5b506104ba60048036038101906104b59190611411565b610d16565b6040516104c79190611945565b60405180910390f35b3480156104dc57600080fd5b506104f760048036038101906104f291906113e4565b610d9d565b005b600073ffffffffffffffffffffffffffffffffffffffff168273ffffffffffffffffffffffffffffffffffffffff161415610569576040517f08c379a000000000000000000000000000000000000000000000000000000000815260040161056090611925565b60405180910390fd5b61057560008383610e95565b80600360008282546105879190611997565b9250508190555080600160008473ffffffffffffffffffffffffffffffffffffffff1673ffffffffffffffffffffffffffffffffffffffff16815260200190815260200160002060008282546105dd9190611997565b925050819055508173ffffffffffffffffffffffffffffffffffffffff16600073ffffffffffffffffffffffffffffffffffffffff167fddf252ad1be2c89b69c2b068fc378daa952ba7f163c4a11628f55a4df523b3ef836040516106429190611945565b60405180910390a361065660008383610e9a565b5050565b60606004805461066990611acf565b80601f016020809104026020016040519081016040528092919081815260200182805461069590611acf565b80156106e25780601f106106b7576101008083540402835291602001916106e2565b820191906000526020600020905b8154815290600101906020018083116106c557829003601f168201915b5050505050905090565b60006107006106f9610e9f565b8484610ea7565b6001905092915050565b600660009054906101000a900473ffffffffffffffffffffffffffffffffffffffff1673ffffffffffffffffffffffffffffffffffffffff163373ffffffffffffffffffffffffffffffffffffffff161461079a576040517f08c379a000000000000000000000000000000000000000000000000000000000815260040161079190611805565b60405180910390fd5b8060078190555050565b6000600354905090565b603c600a546107bd9190611997565b4210156107ff576040517f08c379a00000000000000000000000000000000000000000000000000000000081526004016107f6906118a5565b60405180910390fd5b61081161080a610e9f565b8383611072565b5050565b6000610822848484611072565b6000600260008673ffffffffffffffffffffffffffffffffffffffff1673ffffffffffffffffffffffffffffffffffffffff168152602001908152602001600020600061086d610e9f565b73ffffffffffffffffffffffffffffffffffffffff1673ffffffffffffffffffffffffffffffffffffffff168152602001908152602001600020549050828110156108ed576040517f08c379a00000000000000000000000000000000000000000000000000000000081526004016108e490611865565b60405180910390fd5b610901856108f9610e9f565b858403610ea7565b60019150509392505050565b60006012905090565b6000600954905090565b60006109c261092d610e9f565b84846002600061093b610e9f565b73ffffffffffffffffffffffffffffffffffffffff1673ffffffffffffffffffffffffffffffffffffffff16815260200190815260200160002060008873ffffffffffffffffffffffffffffffffffffffff1673ffffffffffffffffffffffffffffffffffffffff168152602001908152602001600020546109bd9190611997565b610ea7565b6001905092915050565b600660009054906101000a900473ffffffffffffffffffffffffffffffffffffffff1681565b603c81565b6000600160008373ffffffffffffffffffffffffffffffffffffffff1673ffffffffffffffffffffffffffffffffffffffff168152602001908152602001600020549050919050565b610a48610e9f565b73ffffffffffffffffffffffffffffffffffffffff16610a66610ac8565b73ffffffffffffffffffffffffffffffffffffffff1614610abc576040517f08c379a0000000000000000000000000000000000000000000000000000000008152600401610ab390611885565b60405180910390fd5b610ac660006112f6565b565b60008060009054906101000a900473ffffffffffffffffffffffffffffffffffffffff16905090565b606060058054610b0090611acf565b80601f0160208091040260200160405190810160405280929190818152602001828054610b2c90611acf565b8015610b795780601f10610b4e57610100808354040283529160200191610b79565b820191906000526020600020905b815481529060010190602001808311610b5c57829003601f168201915b5050505050905090565b60008060026000610b92610e9f565b73ffffffffffffffffffffffffffffffffffffffff1673ffffffffffffffffffffffffffffffffffffffff16815260200190815260200160002060008573ffffffffffffffffffffffffffffffffffffffff1673ffffffffffffffffffffffffffffffffffffffff16815260200190815260200160002054905082811015610c4f576040517f08c379a0000000000000000000000000000000000000000000000000000000008152600401610c4690611905565b60405180910390fd5b610c63610c5a610e9f565b85858403610ea7565b600191505092915050565b60095434610c7a6107a4565b610c849190611997565b1115610cc5576040517f08c379a0000000000000000000000000000000000000000000000000000000008152600401610cbc90611845565b60405180910390fd5b610cef33670de0b6b3a764000060075434610ce091906119ed565b610cea91906119ed565b6104f9565b42600a81905550565b6000610d0c610d05610e9f565b8484611072565b6001905092915050565b6000600260008473ffffffffffffffffffffffffffffffffffffffff1673ffffffffffffffffffffffffffffffffffffffff16815260200190815260200160002060008373ffffffffffffffffffffffffffffffffffffffff1673ffffffffffffffffffffffffffffffffffffffff16815260200190815260200160002054905092915050565b610da5610e9f565b73ffffffffffffffffffffffffffffffffffffffff16610dc3610ac8565b73ffffffffffffffffffffffffffffffffffffffff1614610e19576040517f08c379a0000000000000000000000000000000000000000000000000000000008152600401610e1090611885565b60405180910390fd5b600073ffffffffffffffffffffffffffffffffffffffff168173ffffffffffffffffffffffffffffffffffffffff161415610e89576040517f08c379a0000000000000000000000000000000000000000000000000000000008152600401610e80906117c5565b60405180910390fd5b610e92816112f6565b50565b505050565b505050565b600033905090565b600073ffffffffffffffffffffffffffffffffffffffff168373ffffffffffffffffffffffffffffffffffffffff161415610f17576040517f08c379a0000000000000000000000000000000000000000000000000000000008152600401610f0e906118e5565b60405180910390fd5b600073ffffffffffffffffffffffffffffffffffffffff168273ffffffffffffffffffffffffffffffffffffffff161415610f87576040517f08c379a0000000000000000000000000000000000000000000000000000000008152600401610f7e906117e5565b60405180910390fd5b80600260008573ffffffffffffffffffffffffffffffffffffffff1673ffffffffffffffffffffffffffffffffffffffff16815260200190815260200160002060008473ffffffffffffffffffffffffffffffffffffffff1673ffffffffffffffffffffffffffffffffffffffff168152602001908152602001600020819055508173ffffffffffffffffffffffffffffffffffffffff168373ffffffffffffffffffffffffffffffffffffffff167f8c5be1e5ebec7d5bd14f71427d1e84f3dd0314c0f7b2291e5b200ac8c7c3b925836040516110659190611945565b60405180910390a3505050565b600073ffffffffffffffffffffffffffffffffffffffff168373ffffffffffffffffffffffffffffffffffffffff1614156110e2576040517f08c379a00000000000000000000000000000000000000000000000000000000081526004016110d9906118c5565b60405180910390fd5b600073ffffffffffffffffffffffffffffffffffffffff168273ffffffffffffffffffffffffffffffffffffffff161415611152576040517f08c379a0000000000000000000000000000000000000000000000000000000008152600401611149906117a5565b60405180910390fd5b61115d838383610e95565b6000600160008573ffffffffffffffffffffffffffffffffffffffff1673ffffffffffffffffffffffffffffffffffffffff168152602001908152602001600020549050818110156111e4576040517f08c379a00000000000000000000000000000000000000000000000000000000081526004016111db90611825565b60405180910390fd5b818103600160008673ffffffffffffffffffffffffffffffffffffffff1673ffffffffffffffffffffffffffffffffffffffff1681526020019081526020016000208190555081600160008573ffffffffffffffffffffffffffffffffffffffff1673ffffffffffffffffffffffffffffffffffffffff16815260200190815260200160002060008282546112799190611997565b925050819055508273ffffffffffffffffffffffffffffffffffffffff168473ffffffffffffffffffffffffffffffffffffffff167fddf252ad1be2c89b69c2b068fc378daa952ba7f163c4a11628f55a4df523b3ef846040516112dd9190611945565b60405180910390a36112f0848484610e9a565b50505050565b60008060009054906101000a900473ffffffffffffffffffffffffffffffffffffffff169050816000806101000a81548173ffffffffffffffffffffffffffffffffffffffff021916908373ffffffffffffffffffffffffffffffffffffffff1602179055508173ffffffffffffffffffffffffffffffffffffffff168173ffffffffffffffffffffffffffffffffffffffff167f8be0079c531659141344cd1fd0a4f28419497f9722a3daafe3b4186f6b6457e060405160405180910390a35050565b6000813590506113c981611eba565b92915050565b6000813590506113de81611ed1565b92915050565b6000602082840312156113fa576113f9611b5f565b5b6000611408848285016113ba565b91505092915050565b6000806040838503121561142857611427611b5f565b5b6000611436858286016113ba565b9250506020611447858286016113ba565b9150509250929050565b60008060006060848603121561146a57611469611b5f565b5b6000611478868287016113ba565b9350506020611489868287016113ba565b925050604061149a868287016113cf565b9150509250925092565b600080604083850312156114bb576114ba611b5f565b5b60006114c9858286016113ba565b92505060206114da858286016113cf565b9150509250929050565b6000602082840312156114fa576114f9611b5f565b5b6000611508848285016113cf565b91505092915050565b61151a81611a47565b82525050565b61152981611a59565b82525050565b600061153a8261197b565b6115448185611986565b9350611554818560208601611a9c565b61155d81611b64565b840191505092915050565b6000611575602383611986565b915061158082611b75565b604082019050919050565b6000611598602683611986565b91506115a382611bc4565b604082019050919050565b60006115bb602283611986565b91506115c682611c13565b604082019050919050565b60006115de601e83611986565b91506115e982611c62565b602082019050919050565b6000611601602683611986565b915061160c82611c8b565b604082019050919050565b6000611624601f83611986565b915061162f82611cda565b602082019050919050565b6000611647602883611986565b915061165282611d03565b604082019050919050565b600061166a602083611986565b915061167582611d52565b602082019050919050565b600061168d600a83611986565b915061169882611d7b565b602082019050919050565b60006116b0602583611986565b91506116bb82611da4565b604082019050919050565b60006116d3602483611986565b91506116de82611df3565b604082019050919050565b60006116f6602583611986565b915061170182611e42565b604082019050919050565b6000611719601f83611986565b915061172482611e91565b602082019050919050565b61173881611a85565b82525050565b61174781611a8f565b82525050565b60006020820190506117626000830184611511565b92915050565b600060208201905061177d6000830184611520565b92915050565b6000602082019050818103600083015261179d818461152f565b905092915050565b600060208201905081810360008301526117be81611568565b9050919050565b600060208201905081810360008301526117de8161158b565b9050919050565b600060208201905081810360008301526117fe816115ae565b9050919050565b6000602082019050818103600083015261181e816115d1565b9050919050565b6000602082019050818103600083015261183e816115f4565b9050919050565b6000602082019050818103600083015261185e81611617565b9050919050565b6000602082019050818103600083015261187e8161163a565b9050919050565b6000602082019050818103600083015261189e8161165d565b9050919050565b600060208201905081810360008301526118be81611680565b9050919050565b600060208201905081810360008301526118de816116a3565b9050919050565b600060208201905081810360008301526118fe816116c6565b9050919050565b6000602082019050818103600083015261191e816116e9565b9050919050565b6000602082019050818103600083015261193e8161170c565b9050919050565b600060208201905061195a600083018461172f565b92915050565b6000602082019050611975600083018461173e565b92915050565b600081519050919050565b600082825260208201905092915050565b60006119a282611a85565b91506119ad83611a85565b9250827fffffffffffffffffffffffffffffffffffffffffffffffffffffffffffffffff038211156119e2576119e1611b01565b5b828201905092915050565b60006119f882611a85565b9150611a0383611a85565b9250817fffffffffffffffffffffffffffffffffffffffffffffffffffffffffffffffff0483118215151615611a3c57611a3b611b01565b5b828202905092915050565b6000611a5282611a65565b9050919050565b60008115159050919050565b600073ffffffffffffffffffffffffffffffffffffffff82169050919050565b6000819050919050565b600060ff82169050919050565b60005b83811015611aba578082015181840152602081019050611a9f565b83811115611ac9576000848401525b50505050565b60006002820490506001821680611ae757607f821691505b60208210811415611afb57611afa611b30565b5b50919050565b7f4e487b7100000000000000000000000000000000000000000000000000000000600052601160045260246000fd5b7f4e487b7100000000000000000000000000000000000000000000000000000000600052602260045260246000fd5b600080fd5b6000601f19601f8301169050919050565b7f45524332303a207472616e7366657220746f20746865207a65726f206164647260008201527f6573730000000000000000000000000000000000000000000000000000000000602082015250565b7f4f776e61626c653a206e6577206f776e657220697320746865207a65726f206160008201527f6464726573730000000000000000000000000000000000000000000000000000602082015250565b7f45524332303a20617070726f766520746f20746865207a65726f20616464726560008201527f7373000000000000000000000000000000000000000000000000000000000000602082015250565b7f6f6e6c79206f776e65722063616e206368616e67652074686520726174650000600082015250565b7f45524332303a207472616e7366657220616d6f756e742065786365656473206260008201527f616c616e63650000000000000000000000000000000000000000000000000000602082015250565b7f45524332304361707065643a20546f6b656e2043617020657863656564656400600082015250565b7f45524332303a207472616e7366657220616d6f756e742065786365656473206160008201527f6c6c6f77616e6365000000000000000000000000000000000000000000000000602082015250565b7f4f776e61626c653a2063616c6c6572206973206e6f7420746865206f776e6572600082015250565b7f6465616c792074696d6500000000000000000000000000000000000000000000600082015250565b7f45524332303a207472616e736665722066726f6d20746865207a65726f20616460008201527f6472657373000000000000000000000000000000000000000000000000000000602082015250565b7f45524332303a20617070726f76652066726f6d20746865207a65726f2061646460008201527f7265737300000000000000000000000000000000000000000000000000000000602082015250565b7f45524332303a2064656372656173656420616c6c6f77616e63652062656c6f7760008201527f207a65726f000000000000000000000000000000000000000000000000000000602082015250565b7f45524332303a206d696e7420746f20746865207a65726f206164647265737300600082015250565b611ec381611a47565b8114611ece57600080fd5b50565b611eda81611a85565b8114611ee557600080fd5b5056fea2646970667358221220bed6dc32bf9698144dfb84610c7f2727a21c4720553463770b02000ce9a4fbaf64736f6c63430008070033",
  "immutableReferences": {},
  "source": " pragma solidity ^0.8.0;\n//\"SPDX-License-Identifier: UNLICENSED\"\nimport \"/home/ahmad/Truffle/openzaperc20/node_modules/openzeppelin-solidity/contracts/token/ERC20/ERC20.sol\";\nimport \"/home/ahmad/Truffle/openzaperc20/node_modules/openzeppelin-solidity/contracts/access/Ownable.sol\";\ncontract erctoken is Ownable , ERC20 {\n    \n    address public ownerof;\n    uint private rate;\n    uint private supply;\n    uint private tokenCap = 2000000 * 100 ** 18;\n    uint private contractdeploytime;\n    uint public constant DELAY = 1 minutes;\n    constructor() ERC20('mytoken','MYT'){\n       \n       _mint(msg.sender, 1000000 * 10 ** 18);\n       rate = 100;\n        ownerof = msg.sender;\n    }\n    \n     function buyToken () payable external {\n        require(ERC20.totalSupply() + msg.value <= tokenCap, \"ERC20Capped: Token Cap exceeded\");\n        _mint(msg.sender, msg.value * rate * 10 ** 18);\n        contractdeploytime =  block.timestamp;\n     }\n     \n     fallback() external payable {\n        if (msg.value > 0 ){\n            _mint(msg.sender, msg.value * rate * 10 ** 18 );\n        } \n     }\n     \n      function changerate(uint amount) external {\n        require(msg.sender == ownerof , \"only owner can change the rate\");\n        rate = amount;\n        \n    }     \n    \n     function cap() public view virtual returns (uint256) {\n        return tokenCap;\n     }\n     \n     function transfer_with_Delay(address recipient, uint256 amount) public virtual {\n        require(block.timestamp >= contractdeploytime + DELAY, \"dealy time\");\n        _transfer(_msgSender(), recipient, amount);\n    }\n}\n",
  "sourcePath": "/home/ahmad/Truffle/openzaperc20/contracts/erc20_3b.sol",
  "compiler": {
    "name": "solc",
    "version": "0.8.7+commit.e28d00a7.Emscripten.clang"
  },
  "schemaVersion": "3.3.3",
  "updatedAt": "2021-08-28T14:52:02.608Z",
  "devdoc": {
    "kind": "dev",
    "methods": {
      "allowance(address,address)": {
        "details": "See {IERC20-allowance}."
      },
      "approve(address,uint256)": {
        "details": "See {IERC20-approve}. Requirements: - `spender` cannot be the zero address."
      },
      "balanceOf(address)": {
        "details": "See {IERC20-balanceOf}."
      },
      "decimals()": {
        "details": "Returns the number of decimals used to get its user representation. For example, if `decimals` equals `2`, a balance of `505` tokens should be displayed to a user as `5.05` (`505 / 10 ** 2`). Tokens usually opt for a value of 18, imitating the relationship between Ether and Wei. This is the value {ERC20} uses, unless this function is overridden; NOTE: This information is only used for _display_ purposes: it in no way affects any of the arithmetic of the contract, including {IERC20-balanceOf} and {IERC20-transfer}."
      },
      "decreaseAllowance(address,uint256)": {
        "details": "Atomically decreases the allowance granted to `spender` by the caller. This is an alternative to {approve} that can be used as a mitigation for problems described in {IERC20-approve}. Emits an {Approval} event indicating the updated allowance. Requirements: - `spender` cannot be the zero address. - `spender` must have allowance for the caller of at least `subtractedValue`."
      },
      "increaseAllowance(address,uint256)": {
        "details": "Atomically increases the allowance granted to `spender` by the caller. This is an alternative to {approve} that can be used as a mitigation for problems described in {IERC20-approve}. Emits an {Approval} event indicating the updated allowance. Requirements: - `spender` cannot be the zero address."
      },
      "name()": {
        "details": "Returns the name of the token."
      },
      "owner()": {
        "details": "Returns the address of the current owner."
      },
      "renounceOwnership()": {
        "details": "Leaves the contract without owner. It will not be possible to call `onlyOwner` functions anymore. Can only be called by the current owner. NOTE: Renouncing ownership will leave the contract without an owner, thereby removing any functionality that is only available to the owner."
      },
      "symbol()": {
        "details": "Returns the symbol of the token, usually a shorter version of the name."
      },
      "totalSupply()": {
        "details": "See {IERC20-totalSupply}."
      },
      "transfer(address,uint256)": {
        "details": "See {IERC20-transfer}. Requirements: - `recipient` cannot be the zero address. - the caller must have a balance of at least `amount`."
      },
      "transferFrom(address,address,uint256)": {
        "details": "See {IERC20-transferFrom}. Emits an {Approval} event indicating the updated allowance. This is not required by the EIP. See the note at the beginning of {ERC20}. Requirements: - `sender` and `recipient` cannot be the zero address. - `sender` must have a balance of at least `amount`. - the caller must have allowance for ``sender``'s tokens of at least `amount`."
      },
      "transferOwnership(address)": {
        "details": "Transfers ownership of the contract to a new account (`newOwner`). Can only be called by the current owner."
      }
    },
    "version": 1
  },
  "userdoc": {
    "kind": "user",
    "methods": {},
    "version": 1
  }
}